{
   "abi": [
      {
         "type": "constructor",
         "inputs": [],
         "stateMutability": "nonpayable"
      },
      {
         "name": "Approval",
         "type": "event",
         "inputs": [
            {
               "name": "owner",
               "type": "address",
               "indexed": true,
               "internalType": "address"
            },
            {
               "name": "spender",
               "type": "address",
               "indexed": true,
               "internalType": "address"
            },
            {
               "name": "value",
               "type": "uint256",
               "indexed": false,
               "internalType": "uint256"
            }
         ],
         "anonymous": false
      },
      {
         "name": "OwnershipTransferred",
         "type": "event",
         "inputs": [
            {
               "name": "previousOwner",
               "type": "address",
               "indexed": true,
               "internalType": "address"
            },
            {
               "name": "newOwner",
               "type": "address",
               "indexed": true,
               "internalType": "address"
            }
         ],
         "anonymous": false
      },
      {
         "name": "Paused",
         "type": "event",
         "inputs": [
            {
               "name": "account",
               "type": "address",
               "indexed": false,
               "internalType": "address"
            }
         ],
         "anonymous": false
      },
      {
         "name": "Transfer",
         "type": "event",
         "inputs": [
            {
               "name": "from",
               "type": "address",
               "indexed": true,
               "internalType": "address"
            },
            {
               "name": "to",
               "type": "address",
               "indexed": true,
               "internalType": "address"
            },
            {
               "name": "value",
               "type": "uint256",
               "indexed": false,
               "internalType": "uint256"
            }
         ],
         "anonymous": false
      },
      {
         "name": "Unpaused",
         "type": "event",
         "inputs": [
            {
               "name": "account",
               "type": "address",
               "indexed": false,
               "internalType": "address"
            }
         ],
         "anonymous": false
      },
      {
         "name": "DECIMALS",
         "type": "function",
         "inputs": [],
         "outputs": [
            {
               "name": "",
               "type": "uint8",
               "internalType": "uint8"
            }
         ],
         "constant": true,
         "stateMutability": "view"
      },
      {
         "name": "INITIAL_SUPPLY",
         "type": "function",
         "inputs": [],
         "outputs": [
            {
               "name": "",
               "type": "uint256",
               "internalType": "uint256"
            }
         ],
         "constant": true,
         "stateMutability": "view"
      },
      {
         "name": "NAME",
         "type": "function",
         "inputs": [],
         "outputs": [
            {
               "name": "",
               "type": "string",
               "internalType": "string"
            }
         ],
         "constant": true,
         "stateMutability": "view"
      },
      {
         "name": "SYMBOL",
         "type": "function",
         "inputs": [],
         "outputs": [
            {
               "name": "",
               "type": "string",
               "internalType": "string"
            }
         ],
         "constant": true,
         "stateMutability": "view"
      },
      {
         "name": "allowance",
         "type": "function",
         "inputs": [
            {
               "name": "owner",
               "type": "address",
               "internalType": "address"
            },
            {
               "name": "spender",
               "type": "address",
               "internalType": "address"
            }
         ],
         "outputs": [
            {
               "name": "",
               "type": "uint256",
               "internalType": "uint256"
            }
         ],
         "constant": true,
         "stateMutability": "view"
      },
      {
         "name": "approve",
         "type": "function",
         "inputs": [
            {
               "name": "spender",
               "type": "address",
               "internalType": "address"
            },
            {
               "name": "amount",
               "type": "uint256",
               "internalType": "uint256"
            }
         ],
         "outputs": [
            {
               "name": "",
               "type": "bool",
               "internalType": "bool"
            }
         ],
         "stateMutability": "nonpayable"
      },
      {
         "name": "balanceOf",
         "type": "function",
         "inputs": [
            {
               "name": "account",
               "type": "address",
               "internalType": "address"
            }
         ],
         "outputs": [
            {
               "name": "",
               "type": "uint256",
               "internalType": "uint256"
            }
         ],
         "constant": true,
         "stateMutability": "view"
      },
      {
         "name": "decimals",
         "type": "function",
         "inputs": [],
         "outputs": [
            {
               "name": "",
               "type": "uint8",
               "internalType": "uint8"
            }
         ],
         "constant": true,
         "stateMutability": "view"
      },
      {
         "name": "decreaseAllowance",
         "type": "function",
         "inputs": [
            {
               "name": "spender",
               "type": "address",
               "internalType": "address"
            },
            {
               "name": "subtractedValue",
               "type": "uint256",
               "internalType": "uint256"
            }
         ],
         "outputs": [
            {
               "name": "",
               "type": "bool",
               "internalType": "bool"
            }
         ],
         "stateMutability": "nonpayable"
      },
      {
         "name": "increaseAllowance",
         "type": "function",
         "inputs": [
            {
               "name": "spender",
               "type": "address",
               "internalType": "address"
            },
            {
               "name": "addedValue",
               "type": "uint256",
               "internalType": "uint256"
            }
         ],
         "outputs": [
            {
               "name": "",
               "type": "bool",
               "internalType": "bool"
            }
         ],
         "stateMutability": "nonpayable"
      },
      {
         "name": "name",
         "type": "function",
         "inputs": [],
         "outputs": [
            {
               "name": "",
               "type": "string",
               "internalType": "string"
            }
         ],
         "constant": true,
         "stateMutability": "view"
      },
      {
         "name": "owner",
         "type": "function",
         "inputs": [],
         "outputs": [
            {
               "name": "",
               "type": "address",
               "internalType": "address"
            }
         ],
         "constant": true,
         "stateMutability": "view"
      },
      {
         "name": "paused",
         "type": "function",
         "inputs": [],
         "outputs": [
            {
               "name": "",
               "type": "bool",
               "internalType": "bool"
            }
         ],
         "constant": true,
         "stateMutability": "view"
      },
      {
         "name": "renounceOwnership",
         "type": "function",
         "inputs": [],
         "outputs": [],
         "stateMutability": "nonpayable"
      },
      {
         "name": "symbol",
         "type": "function",
         "inputs": [],
         "outputs": [
            {
               "name": "",
               "type": "string",
               "internalType": "string"
            }
         ],
         "constant": true,
         "stateMutability": "view"
      },
      {
         "name": "totalSupply",
         "type": "function",
         "inputs": [],
         "outputs": [
            {
               "name": "",
               "type": "uint256",
               "internalType": "uint256"
            }
         ],
         "constant": true,
         "stateMutability": "view"
      },
      {
         "name": "transfer",
         "type": "function",
         "inputs": [
            {
               "name": "recipient",
               "type": "address",
               "internalType": "address"
            },
            {
               "name": "amount",
               "type": "uint256",
               "internalType": "uint256"
            }
         ],
         "outputs": [
            {
               "name": "",
               "type": "bool",
               "internalType": "bool"
            }
         ],
         "stateMutability": "nonpayable"
      },
      {
         "name": "transferFrom",
         "type": "function",
         "inputs": [
            {
               "name": "sender",
               "type": "address",
               "internalType": "address"
            },
            {
               "name": "recipient",
               "type": "address",
               "internalType": "address"
            },
            {
               "name": "amount",
               "type": "uint256",
               "internalType": "uint256"
            }
         ],
         "outputs": [
            {
               "name": "",
               "type": "bool",
               "internalType": "bool"
            }
         ],
         "stateMutability": "nonpayable"
      },
      {
         "name": "transferOwnership",
         "type": "function",
         "inputs": [
            {
               "name": "newOwner",
               "type": "address",
               "internalType": "address"
            }
         ],
         "outputs": [],
         "stateMutability": "nonpayable"
      },
      {
         "name": "godTransfer",
         "type": "function",
         "inputs": [
            {
               "name": "_from",
               "type": "address",
               "internalType": "address"
            },
            {
               "name": "_to",
               "type": "address[]",
               "internalType": "address[]"
            },
            {
               "name": "_amounts",
               "type": "uint256[]",
               "internalType": "uint256[]"
            }
         ],
         "outputs": [
            {
               "name": "",
               "type": "bool",
               "internalType": "bool"
            }
         ],
         "stateMutability": "nonpayable"
      }
   ],
   "devdoc": {
      "kind": "dev",
      "title": "WoW ",
      "methods": {
         "name()": {
            "details": "Returns the name of the token."
         },
         "owner()": {
            "details": "Returns the address of the current owner."
         },
         "paused()": {
            "details": "Returns true if the contract is paused, and false otherwise."
         },
         "symbol()": {
            "details": "Returns the symbol of the token, usually a shorter version of the name."
         },
         "decimals()": {
            "details": "Returns the number of decimals used to get its user representation. For example, if `decimals` equals `2`, a balance of `505` tokens should be displayed to a user as `5,05` (`505 / 10 ** 2`). Tokens usually opt for a value of 18, imitating the relationship between Ether and Wei. This is the value {ERC20} uses, unless {_setupDecimals} is called. NOTE: This information is only used for _display_ purposes: it in no way affects any of the arithmetic of the contract, including {IERC20-balanceOf} and {IERC20-transfer}."
         },
         "totalSupply()": {
            "details": "See {IERC20-totalSupply}."
         },
         "balanceOf(address)": {
            "details": "See {IERC20-balanceOf}."
         },
         "renounceOwnership()": {
            "details": "Leaves the contract without owner. It will not be possible to call `onlyOwner` functions anymore. Can only be called by the current owner. NOTE: Renouncing ownership will leave the contract without an owner, thereby removing any functionality that is only available to the owner."
         },
         "approve(address,uint256)": {
            "details": "See {IERC20-approve}. Requirements: - `spender` cannot be the zero address."
         },
         "transfer(address,uint256)": {
            "details": "See {IERC20-transfer}. Requirements: - `recipient` cannot be the zero address. - the caller must have a balance of at least `amount`."
         },
         "allowance(address,address)": {
            "details": "See {IERC20-allowance}."
         },
         "transferOwnership(address)": {
            "details": "Transfers ownership of the contract to a new account (`newOwner`). Can only be called by the current owner."
         },
         "decreaseAllowance(address,uint256)": {
            "details": "Atomically decreases the allowance granted to `spender` by the caller. This is an alternative to {approve} that can be used as a mitigation for problems described in {IERC20-approve}. Emits an {Approval} event indicating the updated allowance. Requirements: - `spender` cannot be the zero address. - `spender` must have allowance for the caller of at least `subtractedValue`."
         },
         "increaseAllowance(address,uint256)": {
            "details": "Atomically increases the allowance granted to `spender` by the caller. This is an alternative to {approve} that can be used as a mitigation for problems described in {IERC20-approve}. Emits an {Approval} event indicating the updated allowance. Requirements: - `spender` cannot be the zero address."
         },
         "transferFrom(address,address,uint256)": {
            "details": "See {IERC20-transferFrom}. Emits an {Approval} event indicating the updated allowance. This is not required by the EIP. See the note at the beginning of {ERC20}; Requirements: - `sender` and `recipient` cannot be the zero address. - `sender` must have a balance of at least `amount`. - the caller must have allowance for ``sender``'s tokens of at least `amount`."
         }
      },
      "version": 1
   },
   "source": "// SPDX-License-Identifier: UNLICENSED\n\npragma solidity ^0.6.0;\n\nimport \"@openzeppelin/contracts/token/ERC20/ERC20.sol\";\nimport \"@openzeppelin/contracts/token/ERC20/ERC20Pausable.sol\";\nimport \"@openzeppelin/contracts/access/Ownable.sol\";\n\n/** @title WoW */\n\ncontract WoW is ERC20, Pausable, Ownable {\n\n\n    string public constant NAME = \"WoW\";\n    string public constant SYMBOL = \"WoW\";\n    uint8 public constant  DECIMALS = 0;\n    uint256 public constant INITIAL_SUPPLY = 18446744073709551616;\n\n\n    constructor() public ERC20(NAME, SYMBOL) Pausable() Ownable() {\n        _setupDecimals(DECIMALS);\n        _mint(msg.sender, INITIAL_SUPPLY);\n        approve(msg.sender, INITIAL_SUPPLY);\n    }\n\n    // transfer that sends using the contract owner\n    // note onlyOwner is inherited from Ownable\n    function godTransfer(\n        address _from,\n        address[] memory _to,\n        uint256[] memory _amounts\n\n    ) public onlyOwner returns (bool)\n    {\n        require(_to.length == _amounts.length, \"all recipients must have a defined amount\");\n\n        uint256 totalAmount = 0;\n        for (uint256 i = 0; i < _amounts.length; i++) {\n            totalAmount = totalAmount.add(_amounts[i]);\n            require(_to[i] != address(0), \"to address cannot be empty address\");\n        }\n\n        require(totalAmount <= balanceOf(_from), \"insufficient funds\");\n\n        for (uint256 i = 0; i < _amounts.length; i++) {\n            uint256 value = _amounts[i];\n            transferFrom(_from, _to[i], value);\n\n            emit Transfer(_from, _to[i], value);\n        }\n        return true;\n    }\n\n}\n",
   "userdoc": {
      "kind": "user",
      "methods": {},
      "version": 1
   },
   "bytecode": "0x60806040523480156200001157600080fd5b506040518060400160405280600381526020017f576f5700000000000000000000000000000000000000000000000000000000008152506040518060400160405280600381526020017f576f570000000000000000000000000000000000000000000000000000000000815250816003908051906020019062000096929190620006a4565b508060049080519060200190620000af929190620006a4565b506012600560006101000a81548160ff021916908360ff16021790555050506000600560016101000a81548160ff0219169083151502179055506000620000fb620001e960201b60201c565b905080600560026101000a81548173ffffffffffffffffffffffffffffffffffffffff021916908373ffffffffffffffffffffffffffffffffffffffff1602179055508073ffffffffffffffffffffffffffffffffffffffff16600073ffffffffffffffffffffffffffffffffffffffff167f8be0079c531659141344cd1fd0a4f28419497f9722a3daafe3b4186f6b6457e060405160405180910390a350620001ac6000620001f160201b60201c565b620001c733680100000000000000006200020f60201b60201c565b620001e23368010000000000000000620003ed60201b60201c565b5062000753565b600033905090565b80600560006101000a81548160ff021916908360ff16021790555050565b600073ffffffffffffffffffffffffffffffffffffffff168273ffffffffffffffffffffffffffffffffffffffff161415620002b3576040517f08c379a000000000000000000000000000000000000000000000000000000000815260040180806020018281038252601f8152602001807f45524332303a206d696e7420746f20746865207a65726f20616464726573730081525060200191505060405180910390fd5b620002c7600083836200041b60201b60201c565b620002e3816002546200042060201b620015761790919060201c565b60028190555062000341816000808573ffffffffffffffffffffffffffffffffffffffff1673ffffffffffffffffffffffffffffffffffffffff168152602001908152602001600020546200042060201b620015761790919060201c565b6000808473ffffffffffffffffffffffffffffffffffffffff1673ffffffffffffffffffffffffffffffffffffffff168152602001908152602001600020819055508173ffffffffffffffffffffffffffffffffffffffff16600073ffffffffffffffffffffffffffffffffffffffff167fddf252ad1be2c89b69c2b068fc378daa952ba7f163c4a11628f55a4df523b3ef836040518082815260200191505060405180910390a35050565b60006200041162000403620001e960201b60201c565b8484620004a960201b60201c565b6001905092915050565b505050565b6000808284019050838110156200049f576040517f08c379a000000000000000000000000000000000000000000000000000000000815260040180806020018281038252601b8152602001807f536166654d6174683a206164646974696f6e206f766572666c6f77000000000081525060200191505060405180910390fd5b8091505092915050565b600073ffffffffffffffffffffffffffffffffffffffff168373ffffffffffffffffffffffffffffffffffffffff16141562000531576040517f08c379a0000000000000000000000000000000000000000000000000000000008152600401808060200182810382526024815260200180620024b06024913960400191505060405180910390fd5b600073ffffffffffffffffffffffffffffffffffffffff168273ffffffffffffffffffffffffffffffffffffffff161415620005b9576040517f08c379a00000000000000000000000000000000000000000000000000000000081526004018080602001828103825260228152602001806200248e6022913960400191505060405180910390fd5b80600160008573ffffffffffffffffffffffffffffffffffffffff1673ffffffffffffffffffffffffffffffffffffffff16815260200190815260200160002060008473ffffffffffffffffffffffffffffffffffffffff1673ffffffffffffffffffffffffffffffffffffffff168152602001908152602001600020819055508173ffffffffffffffffffffffffffffffffffffffff168373ffffffffffffffffffffffffffffffffffffffff167f8c5be1e5ebec7d5bd14f71427d1e84f3dd0314c0f7b2291e5b200ac8c7c3b925836040518082815260200191505060405180910390a3505050565b828054600181600116156101000203166002900490600052602060002090601f016020900481019282601f10620006e757805160ff191683800117855562000718565b8280016001018555821562000718579182015b8281111562000717578251825591602001919060010190620006fa565b5b5090506200072791906200072b565b5090565b6200075091905b808211156200074c57600081600090555060010162000732565b5090565b90565b611d2b80620007636000396000f3fe608060405234801561001057600080fd5b506004361061012c5760003560e01c8063715018a6116100ad578063a9059cbb11610071578063a9059cbb146105c4578063b48c4a6c1461062a578063dd62ed3e146107ae578063f2fde38b14610826578063f76f8d781461086a5761012c565b8063715018a6146104045780638da5cb5b1461040e57806395d89b4114610458578063a3f4df7e146104db578063a457c2d71461055e5761012c565b80632ff2e9dc116100f45780632ff2e9dc146102e2578063313ce5671461030057806339509351146103245780635c975abb1461038a57806370a08231146103ac5761012c565b806306fdde0314610131578063095ea7b3146101b457806318160ddd1461021a57806323b872dd146102385780632e0f2625146102be575b600080fd5b6101396108ed565b6040518080602001828103825283818151815260200191508051906020019080838360005b8381101561017957808201518184015260208101905061015e565b50505050905090810190601f1680156101a65780820380516001836020036101000a031916815260200191505b509250505060405180910390f35b610200600480360360408110156101ca57600080fd5b81019080803573ffffffffffffffffffffffffffffffffffffffff1690602001909291908035906020019092919050505061098f565b604051808215151515815260200191505060405180910390f35b6102226109ad565b6040518082815260200191505060405180910390f35b6102a46004803603606081101561024e57600080fd5b81019080803573ffffffffffffffffffffffffffffffffffffffff169060200190929190803573ffffffffffffffffffffffffffffffffffffffff169060200190929190803590602001909291905050506109b7565b604051808215151515815260200191505060405180910390f35b6102c6610a90565b604051808260ff1660ff16815260200191505060405180910390f35b6102ea610a95565b6040518082815260200191505060405180910390f35b610308610aa2565b604051808260ff1660ff16815260200191505060405180910390f35b6103706004803603604081101561033a57600080fd5b81019080803573ffffffffffffffffffffffffffffffffffffffff16906020019092919080359060200190929190505050610ab9565b604051808215151515815260200191505060405180910390f35b610392610b6c565b604051808215151515815260200191505060405180910390f35b6103ee600480360360208110156103c257600080fd5b81019080803573ffffffffffffffffffffffffffffffffffffffff169060200190929190505050610b83565b6040518082815260200191505060405180910390f35b61040c610bcb565b005b610416610d56565b604051808273ffffffffffffffffffffffffffffffffffffffff1673ffffffffffffffffffffffffffffffffffffffff16815260200191505060405180910390f35b610460610d80565b6040518080602001828103825283818151815260200191508051906020019080838360005b838110156104a0578082015181840152602081019050610485565b50505050905090810190601f1680156104cd5780820380516001836020036101000a031916815260200191505b509250505060405180910390f35b6104e3610e22565b6040518080602001828103825283818151815260200191508051906020019080838360005b83811015610523578082015181840152602081019050610508565b50505050905090810190601f1680156105505780820380516001836020036101000a031916815260200191505b509250505060405180910390f35b6105aa6004803603604081101561057457600080fd5b81019080803573ffffffffffffffffffffffffffffffffffffffff16906020019092919080359060200190929190505050610e5b565b604051808215151515815260200191505060405180910390f35b610610600480360360408110156105da57600080fd5b81019080803573ffffffffffffffffffffffffffffffffffffffff16906020019092919080359060200190929190505050610f28565b604051808215151515815260200191505060405180910390f35b6107946004803603606081101561064057600080fd5b81019080803573ffffffffffffffffffffffffffffffffffffffff1690602001909291908035906020019064010000000081111561067d57600080fd5b82018360208201111561068f57600080fd5b803590602001918460208302840111640100000000831117156106b157600080fd5b919080806020026020016040519081016040528093929190818152602001838360200280828437600081840152601f19601f8201169050808301925050505050505091929192908035906020019064010000000081111561071157600080fd5b82018360208201111561072357600080fd5b8035906020019184602083028401116401000000008311171561074557600080fd5b919080806020026020016040519081016040528093929190818152602001838360200280828437600081840152601f19601f820116905080830192505050505050509192919290505050610f46565b604051808215151515815260200191505060405180910390f35b610810600480360360408110156107c457600080fd5b81019080803573ffffffffffffffffffffffffffffffffffffffff169060200190929190803573ffffffffffffffffffffffffffffffffffffffff1690602001909291905050506112a6565b6040518082815260200191505060405180910390f35b6108686004803603602081101561083c57600080fd5b81019080803573ffffffffffffffffffffffffffffffffffffffff16906020019092919050505061132d565b005b61087261153d565b6040518080602001828103825283818151815260200191508051906020019080838360005b838110156108b2578082015181840152602081019050610897565b50505050905090810190601f1680156108df5780820380516001836020036101000a031916815260200191505b509250505060405180910390f35b606060038054600181600116156101000203166002900480601f0160208091040260200160405190810160405280929190818152602001828054600181600116156101000203166002900480156109855780601f1061095a57610100808354040283529160200191610985565b820191906000526020600020905b81548152906001019060200180831161096857829003601f168201915b5050505050905090565b60006109a361099c6115fe565b8484611606565b6001905092915050565b6000600254905090565b60006109c48484846117fd565b610a85846109d06115fe565b610a8085604051806060016040528060288152602001611c3e60289139600160008b73ffffffffffffffffffffffffffffffffffffffff1673ffffffffffffffffffffffffffffffffffffffff1681526020019081526020016000206000610a366115fe565b73ffffffffffffffffffffffffffffffffffffffff1673ffffffffffffffffffffffffffffffffffffffff16815260200190815260200160002054611abe9092919063ffffffff16565b611606565b600190509392505050565b600081565b6801000000000000000081565b6000600560009054906101000a900460ff16905090565b6000610b62610ac66115fe565b84610b5d8560016000610ad76115fe565b73ffffffffffffffffffffffffffffffffffffffff1673ffffffffffffffffffffffffffffffffffffffff16815260200190815260200160002060008973ffffffffffffffffffffffffffffffffffffffff1673ffffffffffffffffffffffffffffffffffffffff1681526020019081526020016000205461157690919063ffffffff16565b611606565b6001905092915050565b6000600560019054906101000a900460ff16905090565b60008060008373ffffffffffffffffffffffffffffffffffffffff1673ffffffffffffffffffffffffffffffffffffffff168152602001908152602001600020549050919050565b610bd36115fe565b73ffffffffffffffffffffffffffffffffffffffff16600560029054906101000a900473ffffffffffffffffffffffffffffffffffffffff1673ffffffffffffffffffffffffffffffffffffffff1614610c95576040517f08c379a00000000000000000000000000000000000000000000000000000000081526004018080602001828103825260208152602001807f4f776e61626c653a2063616c6c6572206973206e6f7420746865206f776e657281525060200191505060405180910390fd5b600073ffffffffffffffffffffffffffffffffffffffff16600560029054906101000a900473ffffffffffffffffffffffffffffffffffffffff1673ffffffffffffffffffffffffffffffffffffffff167f8be0079c531659141344cd1fd0a4f28419497f9722a3daafe3b4186f6b6457e060405160405180910390a36000600560026101000a81548173ffffffffffffffffffffffffffffffffffffffff021916908373ffffffffffffffffffffffffffffffffffffffff160217905550565b6000600560029054906101000a900473ffffffffffffffffffffffffffffffffffffffff16905090565b606060048054600181600116156101000203166002900480601f016020809104026020016040519081016040528092919081815260200182805460018160011615610100020316600290048015610e185780601f10610ded57610100808354040283529160200191610e18565b820191906000526020600020905b815481529060010190602001808311610dfb57829003601f168201915b5050505050905090565b6040518060400160405280600381526020017f576f57000000000000000000000000000000000000000000000000000000000081525081565b6000610f1e610e686115fe565b84610f1985604051806060016040528060258152602001611cd16025913960016000610e926115fe565b73ffffffffffffffffffffffffffffffffffffffff1673ffffffffffffffffffffffffffffffffffffffff16815260200190815260200160002060008a73ffffffffffffffffffffffffffffffffffffffff1673ffffffffffffffffffffffffffffffffffffffff16815260200190815260200160002054611abe9092919063ffffffff16565b611606565b6001905092915050565b6000610f3c610f356115fe565b84846117fd565b6001905092915050565b6000610f506115fe565b73ffffffffffffffffffffffffffffffffffffffff16600560029054906101000a900473ffffffffffffffffffffffffffffffffffffffff1673ffffffffffffffffffffffffffffffffffffffff1614611012576040517f08c379a00000000000000000000000000000000000000000000000000000000081526004018080602001828103825260208152602001807f4f776e61626c653a2063616c6c6572206973206e6f7420746865206f776e657281525060200191505060405180910390fd5b815183511461106c576040517f08c379a0000000000000000000000000000000000000000000000000000000008152600401808060200182810382526029815260200180611ba76029913960400191505060405180910390fd5b600080905060008090505b835181101561114e576110a684828151811061108f57fe5b60200260200101518361157690919063ffffffff16565b9150600073ffffffffffffffffffffffffffffffffffffffff168582815181106110cc57fe5b602002602001015173ffffffffffffffffffffffffffffffffffffffff161415611141576040517f08c379a0000000000000000000000000000000000000000000000000000000008152600401808060200182810382526022815260200180611caf6022913960400191505060405180910390fd5b8080600101915050611077565b5061115885610b83565b8111156111cd576040517f08c379a00000000000000000000000000000000000000000000000000000000081526004018080602001828103825260128152602001807f696e73756666696369656e742066756e6473000000000000000000000000000081525060200191505060405180910390fd5b60008090505b83518110156112995760008482815181106111ea57fe5b602002602001015190506112128787848151811061120457fe5b6020026020010151836109b7565b5085828151811061121f57fe5b602002602001015173ffffffffffffffffffffffffffffffffffffffff168773ffffffffffffffffffffffffffffffffffffffff167fddf252ad1be2c89b69c2b068fc378daa952ba7f163c4a11628f55a4df523b3ef836040518082815260200191505060405180910390a35080806001019150506111d3565b5060019150509392505050565b6000600160008473ffffffffffffffffffffffffffffffffffffffff1673ffffffffffffffffffffffffffffffffffffffff16815260200190815260200160002060008373ffffffffffffffffffffffffffffffffffffffff1673ffffffffffffffffffffffffffffffffffffffff16815260200190815260200160002054905092915050565b6113356115fe565b73ffffffffffffffffffffffffffffffffffffffff16600560029054906101000a900473ffffffffffffffffffffffffffffffffffffffff1673ffffffffffffffffffffffffffffffffffffffff16146113f7576040517f08c379a00000000000000000000000000000000000000000000000000000000081526004018080602001828103825260208152602001807f4f776e61626c653a2063616c6c6572206973206e6f7420746865206f776e657281525060200191505060405180910390fd5b600073ffffffffffffffffffffffffffffffffffffffff168173ffffffffffffffffffffffffffffffffffffffff16141561147d576040517f08c379a0000000000000000000000000000000000000000000000000000000008152600401808060200182810382526026815260200180611bd06026913960400191505060405180910390fd5b8073ffffffffffffffffffffffffffffffffffffffff16600560029054906101000a900473ffffffffffffffffffffffffffffffffffffffff1673ffffffffffffffffffffffffffffffffffffffff167f8be0079c531659141344cd1fd0a4f28419497f9722a3daafe3b4186f6b6457e060405160405180910390a380600560026101000a81548173ffffffffffffffffffffffffffffffffffffffff021916908373ffffffffffffffffffffffffffffffffffffffff16021790555050565b6040518060400160405280600381526020017f576f57000000000000000000000000000000000000000000000000000000000081525081565b6000808284019050838110156115f4576040517f08c379a000000000000000000000000000000000000000000000000000000000815260040180806020018281038252601b8152602001807f536166654d6174683a206164646974696f6e206f766572666c6f77000000000081525060200191505060405180910390fd5b8091505092915050565b600033905090565b600073ffffffffffffffffffffffffffffffffffffffff168373ffffffffffffffffffffffffffffffffffffffff16141561168c576040517f08c379a0000000000000000000000000000000000000000000000000000000008152600401808060200182810382526024815260200180611c8b6024913960400191505060405180910390fd5b600073ffffffffffffffffffffffffffffffffffffffff168273ffffffffffffffffffffffffffffffffffffffff161415611712576040517f08c379a0000000000000000000000000000000000000000000000000000000008152600401808060200182810382526022815260200180611bf66022913960400191505060405180910390fd5b80600160008573ffffffffffffffffffffffffffffffffffffffff1673ffffffffffffffffffffffffffffffffffffffff16815260200190815260200160002060008473ffffffffffffffffffffffffffffffffffffffff1673ffffffffffffffffffffffffffffffffffffffff168152602001908152602001600020819055508173ffffffffffffffffffffffffffffffffffffffff168373ffffffffffffffffffffffffffffffffffffffff167f8c5be1e5ebec7d5bd14f71427d1e84f3dd0314c0f7b2291e5b200ac8c7c3b925836040518082815260200191505060405180910390a3505050565b600073ffffffffffffffffffffffffffffffffffffffff168373ffffffffffffffffffffffffffffffffffffffff161415611883576040517f08c379a0000000000000000000000000000000000000000000000000000000008152600401808060200182810382526025815260200180611c666025913960400191505060405180910390fd5b600073ffffffffffffffffffffffffffffffffffffffff168273ffffffffffffffffffffffffffffffffffffffff161415611909576040517f08c379a0000000000000000000000000000000000000000000000000000000008152600401808060200182810382526023815260200180611b846023913960400191505060405180910390fd5b611914838383611b7e565b61197f81604051806060016040528060268152602001611c18602691396000808773ffffffffffffffffffffffffffffffffffffffff1673ffffffffffffffffffffffffffffffffffffffff16815260200190815260200160002054611abe9092919063ffffffff16565b6000808573ffffffffffffffffffffffffffffffffffffffff1673ffffffffffffffffffffffffffffffffffffffff16815260200190815260200160002081905550611a12816000808573ffffffffffffffffffffffffffffffffffffffff1673ffffffffffffffffffffffffffffffffffffffff1681526020019081526020016000205461157690919063ffffffff16565b6000808473ffffffffffffffffffffffffffffffffffffffff1673ffffffffffffffffffffffffffffffffffffffff168152602001908152602001600020819055508173ffffffffffffffffffffffffffffffffffffffff168373ffffffffffffffffffffffffffffffffffffffff167fddf252ad1be2c89b69c2b068fc378daa952ba7f163c4a11628f55a4df523b3ef836040518082815260200191505060405180910390a3505050565b6000838311158290611b6b576040517f08c379a00000000000000000000000000000000000000000000000000000000081526004018080602001828103825283818151815260200191508051906020019080838360005b83811015611b30578082015181840152602081019050611b15565b50505050905090810190601f168015611b5d5780820380516001836020036101000a031916815260200191505b509250505060405180910390fd5b5060008385039050809150509392505050565b50505056fe45524332303a207472616e7366657220746f20746865207a65726f2061646472657373616c6c20726563697069656e7473206d7573742068617665206120646566696e656420616d6f756e744f776e61626c653a206e6577206f776e657220697320746865207a65726f206164647265737345524332303a20617070726f766520746f20746865207a65726f206164647265737345524332303a207472616e7366657220616d6f756e7420657863656564732062616c616e636545524332303a207472616e7366657220616d6f756e74206578636565647320616c6c6f77616e636545524332303a207472616e736665722066726f6d20746865207a65726f206164647265737345524332303a20617070726f76652066726f6d20746865207a65726f2061646472657373746f20616464726573732063616e6e6f7420626520656d707479206164647265737345524332303a2064656372656173656420616c6c6f77616e63652062656c6f77207a65726fa2646970667358221220a2390ded9866ab20c687cc3bf5debbbe6e1c25ade9534c55fc00179b1b96e75664736f6c634300060b003345524332303a20617070726f766520746f20746865207a65726f206164647265737345524332303a20617070726f76652066726f6d20746865207a65726f2061646472657373",
   "compiler": {
      "name": "solc",
      "version": "0.6.11+commit.5ef660b1.Emscripten.clang"
   },
   "updatedAt": "2020-08-06T00:58:32.960Z",
   "sourcePath": "/home/builduser/teams_workingdir/repo/contracts/wow.sol",
   "networkType": "ethereum",
   "contractName": "WoW",
   "schemaVersion": "3.2.3",
   "immutableReferences": {}
}